{
  "contractName": "VoteManager",
  "abi": [
    {
      "constant": true,
      "inputs": [
        {
          "name": "",
          "type": "uint256"
        }
      ],
      "name": "admins",
      "outputs": [
        {
          "name": "",
          "type": "address"
        }
      ],
      "payable": false,
      "stateMutability": "view",
      "type": "function"
    },
    {
      "constant": false,
      "inputs": [
        {
          "name": "name",
          "type": "string"
        },
        {
          "name": "payto",
          "type": "address"
        }
      ],
      "name": "addCharity",
      "outputs": [],
      "payable": false,
      "stateMutability": "nonpayable",
      "type": "function"
    },
    {
      "constant": false,
      "inputs": [],
      "name": "tallyVotes",
      "outputs": [],
      "payable": false,
      "stateMutability": "nonpayable",
      "type": "function"
    },
    {
      "constant": false,
      "inputs": [
        {
          "name": "beneficiary",
          "type": "address"
        },
        {
          "name": "charity",
          "type": "uint8"
        }
      ],
      "name": "voteFor",
      "outputs": [],
      "payable": false,
      "stateMutability": "nonpayable",
      "type": "function"
    },
    {
      "constant": false,
      "inputs": [
        {
          "name": "admin",
          "type": "address"
        }
      ],
      "name": "addAdmin",
      "outputs": [],
      "payable": false,
      "stateMutability": "nonpayable",
      "type": "function"
    },
    {
      "constant": true,
      "inputs": [],
      "name": "owner",
      "outputs": [
        {
          "name": "",
          "type": "address"
        }
      ],
      "payable": false,
      "stateMutability": "view",
      "type": "function"
    },
    {
      "constant": true,
      "inputs": [],
      "name": "winningCharity",
      "outputs": [
        {
          "name": "",
          "type": "uint8"
        }
      ],
      "payable": false,
      "stateMutability": "view",
      "type": "function"
    },
    {
      "constant": false,
      "inputs": [
        {
          "name": "charity",
          "type": "uint8"
        }
      ],
      "name": "vote",
      "outputs": [],
      "payable": false,
      "stateMutability": "nonpayable",
      "type": "function"
    },
    {
      "constant": false,
      "inputs": [
        {
          "name": "newOwner",
          "type": "address"
        }
      ],
      "name": "transferOwnership",
      "outputs": [],
      "payable": false,
      "stateMutability": "nonpayable",
      "type": "function"
    },
    {
      "constant": true,
      "inputs": [
        {
          "name": "",
          "type": "uint256"
        }
      ],
      "name": "charities",
      "outputs": [
        {
          "name": "name",
          "type": "string"
        },
        {
          "name": "to",
          "type": "address"
        }
      ],
      "payable": false,
      "stateMutability": "view",
      "type": "function"
    },
    {
      "inputs": [
        {
          "name": "_mintableToken",
          "type": "address"
        }
      ],
      "payable": false,
      "stateMutability": "nonpayable",
      "type": "constructor"
    },
    {
      "anonymous": false,
      "inputs": [
        {
          "indexed": false,
          "name": "who",
          "type": "address"
        }
      ],
      "name": "AdminAdded",
      "type": "event"
    },
    {
      "anonymous": false,
      "inputs": [
        {
          "indexed": false,
          "name": "who",
          "type": "string"
        }
      ],
      "name": "CharityAdded",
      "type": "event"
    },
    {
      "anonymous": false,
      "inputs": [
        {
          "indexed": false,
          "name": "first",
          "type": "address"
        }
      ],
      "name": "Winner",
      "type": "event"
    },
    {
      "anonymous": false,
      "inputs": [
        {
          "indexed": true,
          "name": "previousOwner",
          "type": "address"
        },
        {
          "indexed": true,
          "name": "newOwner",
          "type": "address"
        }
      ],
      "name": "OwnershipTransferred",
      "type": "event"
    }
  ],
  "bytecode": "0x60606040526000600760016101000a81548160ff02191690831515021790555034156200002b57600080fd5b604051602080620013db83398101604052808051906020019091905050336000806101000a81548173ffffffffffffffffffffffffffffffffffffffff021916908373ffffffffffffffffffffffffffffffffffffffff160217905550600073ffffffffffffffffffffffffffffffffffffffff168173ffffffffffffffffffffffffffffffffffffffff1614151515620000c557600080fd5b80600160006101000a81548173ffffffffffffffffffffffffffffffffffffffff021916908373ffffffffffffffffffffffffffffffffffffffff160217905550600380548060010182816200011c919062000202565b9160005260206000209060020201600060408051908101604052806040805190810160405280600f81526020017f4162737461696e204368617269747900000000000000000000000000000000008152508152602001600073ffffffffffffffffffffffffffffffffffffffff1681525090919091506000820151816000019080519060200190620001b092919062000237565b5060208201518160010160006101000a81548173ffffffffffffffffffffffffffffffffffffffff021916908373ffffffffffffffffffffffffffffffffffffffff160217905550505050506200038d565b8154818355818115116200023257600202816002028360005260206000209182019101620002319190620002be565b5b505050565b828054600181600116156101000203166002900490600052602060002090601f016020900481019282601f106200027a57805160ff1916838001178555620002ab565b82800160010185558215620002ab579182015b82811115620002aa5782518255916020019190600101906200028d565b5b509050620002ba919062000319565b5090565b6200031691905b80821115620003125760008082016000620002e1919062000341565b6001820160006101000a81549073ffffffffffffffffffffffffffffffffffffffff021916905550600201620002c5565b5090565b90565b6200033e91905b808211156200033a57600081600090555060010162000320565b5090565b90565b50805460018160011615610100020316600290046000825580601f106200036957506200038a565b601f01602090049060005260206000209081019062000389919062000319565b5b50565b61103e806200039d6000396000f3006060604052600436106100a4576000357c0100000000000000000000000000000000000000000000000000000000900463ffffffff16806314bfd6d0146100a95780631ab915171461010c578063378a2178146101885780633d2482b31461019d57806370480275146101e25780638da5cb5b1461021b578063ade542c614610270578063b3f98adc1461029f578063f2fde38b146102c5578063fb709d2e146102fe575b600080fd5b34156100b457600080fd5b6100ca60048080359060200190919050506103ea565b604051808273ffffffffffffffffffffffffffffffffffffffff1673ffffffffffffffffffffffffffffffffffffffff16815260200191505060405180910390f35b341561011757600080fd5b610186600480803590602001908201803590602001908080601f0160208091040260200160405190810160405280939291908181526020018383808284378201915050505050509190803573ffffffffffffffffffffffffffffffffffffffff16906020019091905050610429565b005b341561019357600080fd5b61019b6105df565b005b34156101a857600080fd5b6101e0600480803573ffffffffffffffffffffffffffffffffffffffff1690602001909190803560ff1690602001909190505061081c565b005b34156101ed57600080fd5b610219600480803573ffffffffffffffffffffffffffffffffffffffff16906020019091905050610a5f565b005b341561022657600080fd5b61022e610b83565b604051808273ffffffffffffffffffffffffffffffffffffffff1673ffffffffffffffffffffffffffffffffffffffff16815260200191505060405180910390f35b341561027b57600080fd5b610283610ba8565b604051808260ff1660ff16815260200191505060405180910390f35b34156102aa57600080fd5b6102c3600480803560ff16906020019091905050610bbb565b005b34156102d057600080fd5b6102fc600480803573ffffffffffffffffffffffffffffffffffffffff16906020019091905050610cb6565b005b341561030957600080fd5b61031f6004808035906020019091905050610e0b565b60405180806020018373ffffffffffffffffffffffffffffffffffffffff1673ffffffffffffffffffffffffffffffffffffffff1681526020018281038252848181546001816001161561010002031660029004815260200191508054600181600116156101000203166002900480156103da5780601f106103af576101008083540402835291602001916103da565b820191906000526020600020905b8154815290600101906020018083116103bd57829003601f168201915b5050935050505060405180910390f35b6002818154811015156103f957fe5b90600052602060002090016000915054906101000a900473ffffffffffffffffffffffffffffffffffffffff1681565b6000809054906101000a900473ffffffffffffffffffffffffffffffffffffffff1673ffffffffffffffffffffffffffffffffffffffff163373ffffffffffffffffffffffffffffffffffffffff1614151561048457600080fd5b600380548060010182816104989190610e5d565b9160005260206000209060020201600060408051908101604052808681526020018573ffffffffffffffffffffffffffffffffffffffff16815250909190915060008201518160000190805190602001906104f4929190610e8f565b5060208201518160010160006101000a81548173ffffffffffffffffffffffffffffffffffffffff021916908373ffffffffffffffffffffffffffffffffffffffff1602179055505050507f580097619650ae341165b9f614dabba5b474dc3d409578d5ef4d8aa7f6f8878d826040518080602001828103825283818151815260200191508051906020019080838360005b838110156105a1578082015181840152602081019050610586565b50505050905090810190601f1680156105ce5780820380516001836020036101000a031916815260200191505b509250505060405180910390a15050565b6105e7610f0f565b6000806000806000809054906101000a900473ffffffffffffffffffffffffffffffffffffffff1673ffffffffffffffffffffffffffffffffffffffff163373ffffffffffffffffffffffffffffffffffffffff1614151561064857600080fd5b600760019054906101000a900460ff1615151561066457600080fd5b600090505b6004805490508160ff16101561073b5760048160ff1681548110151561068b57fe5b906000526020600020900160009054906101000a900473ffffffffffffffffffffffffffffffffffffffff169250600660008473ffffffffffffffffffffffffffffffffffffffff1673ffffffffffffffffffffffffffffffffffffffff16815260200190815260200160002060009054906101000a900460ff169350848460ff1681518110151561071957fe5b9060200190602002018051809190600101815250508080600101915050610669565b600093505b6003805490508460ff16101561079b5781858560ff1681518110151561076257fe5b90602001906020020151111561078e5783600760006101000a81548160ff021916908360ff1602179055505b8380600101945050610740565b6001600760016101000a81548160ff0219169083151502179055507f745c90b656b4aafe296c8ca35aeacfe56cb96c90e1d320e5da643fff1051b6c0600760009054906101000a900460ff16604051808260ff1673ffffffffffffffffffffffffffffffffffffffff16815260200191505060405180910390a15050505050565b60008060009150600090505b6002805490508160ff1610801561083d575081155b156108bd5760028160ff1681548110151561085457fe5b906000526020600020900160009054906101000a900473ffffffffffffffffffffffffffffffffffffffff1673ffffffffffffffffffffffffffffffffffffffff163373ffffffffffffffffffffffffffffffffffffffff161491508080600101915050610828565b8115156108c957600080fd5b6003805490508360ff16111515156108e057600080fd5b60008360ff161115156108f257600080fd5b600560008573ffffffffffffffffffffffffffffffffffffffff1673ffffffffffffffffffffffffffffffffffffffff16815260200190815260200160002060009054906101000a900460ff161515610a01576001600560008673ffffffffffffffffffffffffffffffffffffffff1673ffffffffffffffffffffffffffffffffffffffff16815260200190815260200160002060006101000a81548160ff021916908315150217905550600480548060010182816109b19190610f23565b9160005260206000209001600086909190916101000a81548173ffffffffffffffffffffffffffffffffffffffff021916908373ffffffffffffffffffffffffffffffffffffffff160217905550505b82600660008673ffffffffffffffffffffffffffffffffffffffff1673ffffffffffffffffffffffffffffffffffffffff16815260200190815260200160002060006101000a81548160ff021916908360ff16021790555050505050565b6000809054906101000a900473ffffffffffffffffffffffffffffffffffffffff1673ffffffffffffffffffffffffffffffffffffffff163373ffffffffffffffffffffffffffffffffffffffff16141515610aba57600080fd5b60028054806001018281610ace9190610f23565b9160005260206000209001600083909190916101000a81548173ffffffffffffffffffffffffffffffffffffffff021916908373ffffffffffffffffffffffffffffffffffffffff160217905550507f44d6d25963f097ad14f29f06854a01f575648a1ef82f30e562ccd3889717e33981604051808273ffffffffffffffffffffffffffffffffffffffff1673ffffffffffffffffffffffffffffffffffffffff16815260200191505060405180910390a150565b6000809054906101000a900473ffffffffffffffffffffffffffffffffffffffff1681565b600760009054906101000a900460ff1681565b6000600160009054906101000a900473ffffffffffffffffffffffffffffffffffffffff1673ffffffffffffffffffffffffffffffffffffffff166370a08231336000604051602001526040518263ffffffff167c0100000000000000000000000000000000000000000000000000000000028152600401808273ffffffffffffffffffffffffffffffffffffffff1673ffffffffffffffffffffffffffffffffffffffff168152602001915050602060405180830381600087803b1515610c8257600080fd5b6102c65a03f11515610c9357600080fd5b50505060405180519050111515610ca957600080fd5b610cb3338261081c565b50565b6000809054906101000a900473ffffffffffffffffffffffffffffffffffffffff1673ffffffffffffffffffffffffffffffffffffffff163373ffffffffffffffffffffffffffffffffffffffff16141515610d1157600080fd5b600073ffffffffffffffffffffffffffffffffffffffff168173ffffffffffffffffffffffffffffffffffffffff1614151515610d4d57600080fd5b8073ffffffffffffffffffffffffffffffffffffffff166000809054906101000a900473ffffffffffffffffffffffffffffffffffffffff1673ffffffffffffffffffffffffffffffffffffffff167f8be0079c531659141344cd1fd0a4f28419497f9722a3daafe3b4186f6b6457e060405160405180910390a3806000806101000a81548173ffffffffffffffffffffffffffffffffffffffff021916908373ffffffffffffffffffffffffffffffffffffffff16021790555050565b600381815481101515610e1a57fe5b906000526020600020906002020160009150905080600001908060010160009054906101000a900473ffffffffffffffffffffffffffffffffffffffff16905082565b815481835581811511610e8a57600202816002028360005260206000209182019101610e899190610f4f565b5b505050565b828054600181600116156101000203166002900490600052602060002090601f016020900481019282601f10610ed057805160ff1916838001178555610efe565b82800160010185558215610efe579182015b82811115610efd578251825591602001919060010190610ee2565b5b509050610f0b9190610fa5565b5090565b602060405190810160405280600081525090565b815481835581811511610f4a57818360005260206000209182019101610f499190610fa5565b5b505050565b610fa291905b80821115610f9e5760008082016000610f6e9190610fca565b6001820160006101000a81549073ffffffffffffffffffffffffffffffffffffffff021916905550600201610f55565b5090565b90565b610fc791905b80821115610fc3576000816000905550600101610fab565b5090565b90565b50805460018160011615610100020316600290046000825580601f10610ff0575061100f565b601f01602090049060005260206000209081019061100e9190610fa5565b5b505600a165627a7a72305820c43c4f3bd3548bc3a92322a0dca3e2450cbfd9f8645b2d5315e1bb3755ac0d5a0029",
  "source": "pragma solidity ^0.4.11;\n\nimport \"zeppelin-solidity/contracts/ownership/Ownable.sol\";\nimport \"zeppelin-solidity/contracts/token/MintableToken.sol\";\n\ncontract VoteManager is Ownable {\n  event AdminAdded(address who);\n  event CharityAdded(string who);\n  event Winner(address first/*, address second, address third*/);\n\n  struct Charity {\n    string name;\n    address to;\n  }\n\n  address token;\n  address[] public admins;\n  Charity[] public charities;\n  address[] voters;\n  mapping(address => bool) votersLookup;\n  mapping(address => uint8) votes;\n  uint8 public winningCharity;\n  bool electedWinner = false;\n\n  //// Modifiers -- Start\n\n  modifier onlyAdmin() {\n    bool isAdmin = false;\n    for (uint8 i = 0; i < admins.length && !isAdmin; i++) {\n      isAdmin = msg.sender == admins[i];\n    }\n    require(isAdmin);\n    _;\n  }\n\n  modifier onlyTokenHolder() {\n    require(MintableToken(token).balanceOf(msg.sender) > 0);\n    _;\n  }\n\n  //// Modifiers -- End\n  //// Administration -- Start\n\n  function addAdmin(address admin) public onlyOwner {\n    admins.push(admin);\n    AdminAdded(admin);\n  }\n\n  function addCharity(string name, address payto) public onlyOwner {\n    charities.push(Charity(name, payto));\n    CharityAdded(name);\n  }\n\n  //// Administration -- Stop\n\n  function VoteManager(address _mintableToken) public {\n    require(_mintableToken != address(0));\n    token = _mintableToken;\n    charities.push(Charity(\"Abstain Charity\", address(0)));\n  }\n\n  function voteFor(address beneficiary, uint8 charity) public onlyAdmin {\n    require(charity <= charities.length);\n    require(charity > 0);\n    if (!votersLookup[beneficiary]) {\n      votersLookup[beneficiary] = true;\n      voters.push(beneficiary);\n    }\n    votes[beneficiary] = charity;\n  }\n\n  function vote(uint8 charity) public onlyTokenHolder {\n    voteFor(msg.sender, charity);\n  }\n\n  function tallyVotes() public onlyOwner {\n    require(!electedWinner);\n\n    uint256[] memory charityVotes;\n    uint8 charityIndex;\n    address voterAddress;\n    uint256 winningVoteCount;\n    uint8 voterIndex;\n\n    // Accumulate votes per charity.\n    for (voterIndex = 0; voterIndex < voters.length; voterIndex++) {\n      voterAddress = voters[voterIndex];\n      charityIndex = votes[voterAddress];\n      charityVotes[charityIndex]++;\n    }\n\n    // Find winning charity in map.\n    for (charityIndex = 0; charityIndex < charities.length; charityIndex++) {\n      if (charityVotes[charityIndex] > winningVoteCount) {\n        winningCharity = charityIndex;\n      }\n    }\n\n    electedWinner = true;\n    Winner(winningCharity);\n  }\n}\n",
  "sourcePath": "/Users/abe/Projects/abec/holiday-coin/contracts/VoteManager.sol",
  "compiler": {
    "name": "solc",
    "version": "0.4.18+commit.9cf6e910.Emscripten.clang"
  },
  "schemaVersion": "1.0.1",
  "updatedAt": "2017-12-23T11:04:44.261Z"
}